:020000040800F2
:10000000B0050020050100083B280008A91D0008D4
:100010003928000871010008D52C000800000000F4
:100020000000000000000000000000003F28000861
:1000300073010008000000003D2800084128000866
:100040001F0100081F0100081F0100081F01000810
:100050001F0100081F0100081F0100081F01000800
:100060001F0100081F0100081F0100081F010008F0
:100070001F0100081F0100081F0100081F010008E0
:100080001F0100081F0100081F0100081F010008D0
:100090001F0100081F0100081F0100081F010008C0
:1000A0001F0100081F0100081F0100081F010008B0
:1000B00099280008A5280008B1280008AD1D0008EF
:1000C0001F0100081F0100081F0100081F01000890
:1000D0001F010008C92C00081F0100081F010008AB
:1000E000750100081F0100081F010008DFF810D08B
:1000F00000F02CF800480047152D0008AFF30080F1
:10010000B00500200648804706480047FEE7FEE7A6
:10011000FEE7FEE7FEE7FEE7FEE7FEE7FEE7FEE7B7
:1001200097280008ED000008D2B201E000F8012B8A
:10013000491EFBD270470022F6E710B513460A4667
:1001400004461946FFF7F0FF204610BD064C074D48
:1001500006E0E06840F0010394E807009847103497
:10016000AC42F6D3FFF7C6FF982E0008B82E000861
:10017000FEE7704710B54FF4805000F0B5F84FF42B
:10018000005000F0B1F84FF4804000F0ADF8BDE849
:1001900010404FF4004000F0A7B8000010B590F8F0
:1001A00021100024022903D00421816301243DE0B1
:1001B00001680A6822F00E020A6001680A6822F0EB
:1001C00001020A601A4A0168914201D1012121E02D
:1001D000174A1432914201D110211BE0144A2832EF
:1001E000914201D1891515E0114A3C32914201D169
:1001F00089140FE00E4A5032914202D14FF48031FF
:1002000008E00B4A6432914202D14FF4801101E0C0
:100210004FF08071064A083A5160012180F82110A0
:10022000002180F82010416B01B18847204610BDA5
:100230000800024090F821007047000030B42149C6
:10024000002401238D784FF08042B0F5805F13D0F9
:10025000B0F5005F1BD00D461B4AED78B0F5804F1E
:1002600020D0B0F5004F2BD1C5B1106820F00100AF
:1002700010604C704B7111E02DB9106820F0010036
:1002800010600C700B71C823062210A114E02DB170
:10029000106820F0010010600C700B71C82306225A
:1002A0000CA109E02DB9106820F0010010604C701D
:1002B0004B71C823062209A130BC0A4801F01ABDBF
:1002C00030BC704700000020000400404C584D49ED
:1002D0004E0A00004C584D41580A00004C594D49F7
:1002E0004E0A000024010020044910B50A680242A9
:1002F00002D00860FFF7A2FF10BD00001404014007
:100300002DE9F84FDFF8B891002409F1040A0AF149
:10031000040B23460F270BF1040EC9E00125A5406D
:100320002A40AA427DD1674ED1F804C0ACEB060842
:10033000B44532D014DCBCF1030F3AD009DCBCF177
:10034000000F2AD0BCF1010F1CD0BCF1020F31D13B
:100350001DE0BCF1110F17D0BCF1120F2AD119E02A
:10036000B8F5881F19D006DCB8F5803F15D0B8F570
:10037000801F1FD111E0B8F5001F0ED0B8F5041F83
:1003800018D10AE0CB6815E0CB681B1D12E0CB68E2
:1003900008330FE0CB680C330CE08B682BB1012BDA
:1003A0004FF0080303D0456104E0042302E0056137
:1003B00000E00023FF2A01D8064601E000F1040610
:1003C0004FEA840501D9A5F12005D6F8008007FA87
:1003D00005FC28EA0C0803FA05F548EA0508C6F802
:1003E00000804D68ED0062D5374DAE6946F00106DC
:1003F000AE61AD6924F0030605F001050095334DAB
:1004000006EB050CDCF80850A607360F07FA06F8CD
:1004100025EA0805DFF8B880404503D14FF0000811
:1004200017E044E0DFF8AC80404502D14FF001080E
:100430000FE0DFF8A480404502D14FF0020808E049
:10044000DFF89880404502D14FF0030801E04FF0FB
:10045000040808FA06F848EA0508CCF808804D6850
:10046000D9F80060ED034D4601D5164300E09643F0
:100470002E604D68DAF80060AD03554601D516438D
:1004800000E096432E604D68DBF80060ED025D46AB
:1004900001D5164300E096432E604D68DEF80060FB
:1004A000AD02754601D5164300E096432E60641CEC
:1004B0000D682A46E5407FF431AFBDE8F88F0000B3
:1004C0000004014000001110001002400000014033
:1004D00000080140000C01400010014000140140E0
:1004E0008068084000D0012070470AB10161704760
:1004F0000904FBE7014880687047000024000020E1
:10050000704770472DE9F041026800245168C76ABE
:1005100090F83E5090F83D60102D1CD0402D1AD020
:10052000036C002B7ED053694FF02805DB439F07F7
:1005300079D4CF43BF0576D4016C01B1946990F8AA
:100540003D3000219D430B466ED0C91E516180F89D
:100550003C30BDE8F081946953694FF42A0CDB43C9
:100560005FEAC37E4FF02A4604D06745F1D0B74218
:10057000EFD010E0CF43BF050DD4C16A614501D172
:10058000012103E0C16AB14201D10821C162BDE885
:10059000F04101F03BBF1E0716D4CE43B60513D47D
:1005A000416CC9B21161416B11B9826B002AD0D084
:1005B000896A19B9816B896A0029CAD000684168C3
:1005C00041F400614160C4E79E0706D4CE43B605FE
:1005D00003D4BDE8F04101F06DBEE4435268640706
:1005E0004FEA02521BD4002AB3DB1A0608D4CA43CE
:1005F000520505D45A0705D5BDE8F04101F0FEBD0E
:100600005A07A6D4C9438905A3D4102D03D0BDE849
:10061000F04101F041BFBDE8F04101F0B5BD002A55
:1006200097DB02E015E029E015E05A0608D4CA433A
:10063000520505D45A0705D5BDE8F04101F030BD9B
:100640005A0786D4C943890583D4BDE8F04101F037
:10065000BDBC946967E7556825F480655560E24341
:10066000540700D50121120601D5828900E0028BD2
:1006700080F83C3092B2FFF744FF6AE7DC0606D40C
:10068000CC43A40503D4BDE8F04101F055BF212EB1
:1006900027D0292E25D05C0655D4CC43640552D4EE
:1006A0005B0752D590F83D10438D002B8BD012691B
:1006B000436A1A70426A521C4262428D521E42853F
:1006C000428D002AD9D12A29D7D101684A6822F45B
:1006D00080624A602221016380F83D5000F03EF9BB
:1006E00037E71C0623D4CC43640520D45B0720D510
:1006F00090F83D10438D002BBFD0436A1B781361E7
:10070000426A521C4262428D521E4285428D002A2C
:10071000B3D12929B1D101684A6822F480624A60C4
:100720002121016380F83D5000F019F911E75B07C2
:10073000A3D4C9438905A0D4418D00299DD0416A25
:10074000097811610AE05B0797D4C943890594D4FD
:10075000418D002991D01169426A1170416A491C8A
:100760004162418D491E4185F3E6704770B5040032
:1007700025D094F83D00002520B984F83C5020464F
:1007800000F0BEF8242084F83D002068016821F0C4
:10079000010101602068016841F4004101602068A6
:1007A000016821F40041016000F0B8FA4D4A616827
:1007B000914201D84C4900E04C49884201D20120C5
:1007C00070BD4B492368B0FBF1F15E6826F03F062F
:1007D0000E435E606368934206D94FF496735943A3
:1007E0004FF47A73B1FBF3F12368491C1E6A26F0BB
:1007F0003F06314319626168914210D84900401E9A
:10080000B0FBF1F2521CC2F30B02042A01D2042005
:1008100022E0B0FBF1F0401CC0F30B001CE0A2682A
:10082000F2B301EBC10303EB0116431EB3FBF6F376
:100830005B1C43F480431B0549D092B301EBC1021A
:1008400002EB0111401EB0FBF1F0401CC0F30B00A5
:1008500040F4804040F400402168CA694CF6FF73C0
:100860009A431043C861D4E9071001432068026825
:1008700022F0C00211430160D4E903010143206862
:10088000826848F2FF339A4311438160D4E905013D
:1008900008432168CA6822F0FF021043C86001E0E3
:1008A0000EE016E02068016841F001010160256456
:1008B000202084F83D00256384F83E50002070BD60
:1008C00001EB4106431EB3FBF6F35B1CB3E70120CB
:1008D000C2E701EB4101401EB0FBF1F0401CC0F348
:1008E0000B00B7E7A086010080841E0000093D00D0
:1008F00040420F00704770477047704770470000D4
:1009000010B586B000210091019102910391006819
:100910000F4988421AD10F4CA06940F00800A0612D
:10092000A069694600F008000490C02000901220E1
:100930000190032003900848FFF7E2FCE06940F4CF
:100940000010E061E06900F40010049006B010BDF2
:100950000054004000100240000C014070477047F6
:1009600070B5040011D021684CF6CC4008602168B5
:1009700045F255500860D4E9000141602168A06843
:100980008860FFF7B7FD054609E0012070BD00BF94
:10099000FFF7B0FD401B262801D9032070BD206859
:1009A000C0680028F4D121684AF6AA200860002017
:1009B00070BD00684AF6AA2101600020704700005F
:1009C0000248816802781144816070472400002049
:1009D000074810B5016841F010010160032000F0E4
:1009E000D5F8002000F006F800F03EF8002010BD19
:1009F0000020024000B5014687B000221E2000F012
:100A0000A5F81E2000F095F81348C16941F00401D3
:100A1000C161C06905A900F004000690684600F0B5
:100A20005DF900F07BF90D494000B0FBF1F10D4894
:100A30000B4A491E0260416040F2E7320021C0E9E2
:100A40000321816000F086FB10B1012007B000BDDA
:100A5000044800F0DDFBF9E70010024040420F00BF
:100A600000080040640100200C4808B5816941F08D
:100A700001018161816901F001010091C16941F0C9
:100A80008051C161C06900F0805000900448416805
:100A900021F0E06141F00071416008BD00100240AA
:100AA000000001402DE9F04116460F46040004D035
:100AB00094F83900002518B107E00120BDE8F08165
:100AC00084F83850204600F0E9FE242084F83900EC
:100AD0002068C16821F40051C160204602F066F828
:100AE0002068016921F4904101612068416921F089
:100AF0002A0141612068016921F00F01016120682C
:100B00000169394301612068C16821F40061C16055
:100B10002068C1683143C1602068C16841F4005158
:100B2000C160E563202084F8390084F83A00002091
:100B3000C4E7002809DB00F01F02012191404009B1
:100B4000800000F1E020C0F800117047F0B40E4BB7
:100B50001B680C46C3F30223C3F10705042D00D91B
:100B60000425191D072901D2002300E0DB1E012600
:100B700006FA05F1491E214099409E40761E164016
:100B80003143F0BC02F0A7B80CED00E0064900F0DC
:100B9000070208684FF6FF03184040EA0220034AA4
:100BA00010430860704700000CED00E00000FA05FB
:100BB0002DE9F0470F46050061D0434E306800F044
:100BC0000700B84209D2306820F00700384330608F
:100BD000306800F00700B84251D128683B4C8107CB
:100BE00012D5400703D5606840F4E0606060287863
:100BF000000703D5606840F4605060606068A968D1
:100C000020F0F000084360602878C00728D06868AA
:100C1000012810D02168022810D0890700292EDA77
:100C2000616821F0030101436160FFF763FC8046C6
:100C300041F288390DE021688903EFE78901EDE78A
:100C4000FFF758FCA0EB0801494502D90320BDE895
:100C5000F0876068696800F00C00B0EB810FEFD19D
:100C6000306800F00700B8420BD9306820F0070068
:100C700038433060306800F00700B84201D00120EE
:100C8000E5E72878400705D56068E96820F4E0606A
:100C9000084360602878000706D56068296920F459
:100CA000605040EAC100606000F058F86168084A8E
:100CB000C1F30311515CC84006490860064800684A
:100CC000FFF798FE0020C2E700200240001002401B
:100CD000802E000830000020280000200F22026033
:100CE0000C4A536803F003034360536803F0F003B6
:100CF0008360536803F4E063C36052684FF4E063B9
:100D000003EAD20202610448006800F007000860AC
:100D100070470000001002400020024004480549CE
:100D200000684968044AC1F30221515CC840704719
:100D30003000002000100240902E000804480549B1
:100D400000684968044AC1F3C221515CC840704739
:100D50003000002000100240902E000812A185B043
:100D60000FC98DE80F0014A0144A00680490516860
:100D7000134801F00C03042B10D0082B0ED1C1F343
:100D80008343C9031DF803000AD5516804AAC1F3BF
:100D90004041515C0A4A5043B0FBF1F005B0704746
:100DA00008494843FAE7000002030405060708095A
:100DB0000A0B0C0D0E0F1010010200000010024073
:100DC00000127A0000093D002DE9F84F040070D0B0
:100DD0002078C04DC00749D06868C0F38100012861
:100DE00007D06868C0F38100022809D16868C00391
:100DF00006D52868800339D560680028E7D035E03B
:100E00006068B0F5803F0BD010B1B0F5A02F11D0C5
:100E1000286820F480302860286820F4802002E0D0
:100E2000286840F480302860606890B1FFF762FB6A
:100E300006460AE0286840F480202860F0E700BFFA
:100E4000FFF758FB801B642873D828688003F7D508
:100E50000CE0FFF74FFB064605E000BFFFF74AFB3B
:100E6000801B6428F0D828688003F7D420789A4E35
:100E700080074FF001094FF0000839D5686810F07D
:100E80000C0F07D06868C0F38100022809D1686898
:100E9000C00306D42868800714D52069012808D12A
:100EA00010E02069B0B1C6F80090FFF723FB0746B9
:100EB00005E00AE1FFF71EFBC01B0228C4D8286822
:100EC0008007F7D52868616920F0F80040EAC10082
:100ED00028600DE0C6F80080FFF70CFB074604E031
:100EE000FFF708FBC01B022823D828688007F7D427
:100EF000207800072CD57948A169D9B1C0F80090B5
:100F0000FFF7F8FA074604E0FFF7F4FAC01B0228DF
:100F10000FD8686A8007F7D571484FF4FA51006816
:100F2000B0FBF1F0009000BF0098411E0091FAD292
:100F30000EE080E0C0F80080FFF7DCFA074604E02E
:100F4000FFF7D8FAC01B022875D8686A8007F7D463
:100F50002078400760D5E8690027C00008D4E86918
:100F600040F08050E861E869012700F0805000906F
:100F70005C480168C90513D40168834641F4807157
:100F80000160FFF7B7FA824606E000BFFFF7B2FA4A
:100F9000A0EB0A0064284ED8DBF80000C005F5D5A8
:100FA000E06801280AD008B1052813D0286A20F08B
:100FB00001002862286A20F0040002E0286A40F05C
:100FC00001002862E06841F2883B98B1FFF792FA8D
:100FD00082460BE0286A40F004002862EEE700BF7A
:100FE000FFF788FAA0EB0A0159455AD8286A80070A
:100FF000F6D50CE0FFF77EFA824605E0FFF77AFAB5
:10100000A0EB0A0159454CD8286A8007F6D41FB1D5
:10101000E86920F08050E861E06988B36968C1F34D
:101020008101022944D00228C6F8608004D0FFF76D
:1010300061FA044638E034E0FFF75CFA074604E062
:10104000FFF758FAC01B02282BD828688001F7D474
:10105000206AB0F5803F05D16868A16820F40030AF
:1010600008436860D4E908010843696821F47411F1
:1010700008436860C6F86090FFF73CFA044606E053
:1010800025E000BFFFF736FA001B022809D82868C0
:101090008001F7D51BE000BFFFF72CFA001B0228E8
:1010A00002D90320BDE8F88F28688001F4D40EE04F
:1010B0000128F7D06868226A00F48031914204D197
:1010C000616A00F47010884201D00120EAE7002034
:1010D000E8E7000000100240000042428004424263
:1010E00030000020007000407047704770B590F8E5
:1010F0003C20012A26D0012480F83C40022280F8BE
:101100003D2003685A689D6822F070060A683243E1
:101110005A600D4B02689A4208D0B2F1804F05D058
:101120000A4B9A4202D00A4B9A4204D1496825F0F0
:1011300080031943916080F83D40002180F83C1005
:10114000084670BD022070BD002C01400004004024
:101150000008004010B5040003D094F83D0010B121
:1011600007E0012010BD002084F83C00204600F07C
:101170001FF8022084F83D00211D206801F09EFB2D
:10118000012084F8460084F83E0084F83F0084F88B
:10119000400084F8410084F8420084F8430084F859
:1011A000440084F8450084F83D00002010BD000094
:1011B00008B501681448B1F1804F14D0134A914228
:1011C00020D1C16941F00201C161C069002200F073
:1011D0000200009011461D20FFF7B8FC1D20BDE85D
:1011E0000840FFF7A6BCC16941F00101C161C069B7
:1011F000002200F00100009011461C20FFF7A6FC21
:101200001C20ECE708BD0000001002400004004074
:1012100090F83D10012901D001207047022180F88B
:101220003D100168CA6842F00102CA6000680B49BB
:10123000884208D0B0F1804F05D00949884202D0D9
:101240000849884204D1816801F00701062903D0CA
:10125000016841F00101016000207047002C01404D
:10126000000400400008004070B5044690F83C00BF
:10127000012817D0012584F83C50022084F83D0055
:101280002068826822F0770222F47F428260086838
:10129000502830D00DDC20284DD005DC98B3102824
:1012A0003BD148E0022070BD302844D0402834D1E2
:1012B00039E0602828D0702806D0B0F5805F2CD0A7
:1012C000B0F5005F29D10AE0CB68D1E9012120689F
:1012D00001F037FB2068816841F0770109E0CB68B5
:1012E000D1E90121206801F02CFB2068816841F4DC
:1012F0008041816011E0CA684968206801F0D6FB2E
:101300005021206807E016E0CA684968206801F0AB
:10131000DEFB6021206801F01EFB84F83D500020B8
:1013200084F83C0070BDCA684968206801F0BEFBC3
:1013300040212068EFE7226801461046EBE770473E
:1013400070B50446006801694FF00005C94389077C
:1013500015D4C168C943890711D4E91E0161012070
:101360002077206880698007204602D0FFF7E7FFDA
:1013700004E000F0CBF8204600F05AF92577206809
:101380000169C943490717D4C168C943490713D440
:101390006FF004010161022020772068806910F459
:1013A000407F204602D0FFF7CAFF04E000F0AEF80D
:1013B000204600F03DF9257720680169C9430907F7
:1013C00016D4C168C943090712D46FF0080101613E
:1013D000042020772068C0698007204602D0FFF7EC
:1013E000AEFF04E000F092F8204600F021F92577E6
:1013F00020680169C943C90617D4C168C943C90631
:1014000013D46FF010010161082020772068C069B3
:1014100010F4407F204602D0FFF791FF04E000F077
:1014200075F8204600F004F9257720680169C94362
:10143000C90708D1C168C943C90704D1891E016120
:10144000204600F045F920680169C943090609D41E
:10145000C168C943090605D46FF0800101612046C7
:10146000FFF742FE20680169C943490609D4C168F3
:10147000C943490605D46FF040010161204600F0E0
:101480005DF920680169C94389060BD4C168C94365
:10149000890607D46FF0200101612046BDE8704045
:1014A000FFF723BE70BD000010B586B0002100918B
:1014B0000191029103910368114902221148B3F18D
:1014C000804F13D0104CA3420ED18B6943F004031C
:1014D0008B61896901F0040104914021CDE900127A
:1014E00069460392FEF70CFF06B010BD8B6943F00E
:1014F00004038B61896901F0040104910121EDE786
:10150000001002400008014000040040704770B520
:10151000044690F83C000D4601280AD0012084F8CA
:101520003C0042B1042A18D0082A2AD00C2A4DD1F6
:1015300039E0022070BD206801F016FA2068816948
:1015400041F0080181612068816921F00401816115
:10155000206881692A69114311E0206801F02CFAA2
:101560002068816941F4006181612068816921F40A
:1015700080618161206881692A6941EA0221816173
:1015800024E0206801F044FA2068C16941F00801B4
:10159000C1612068C16921F00401C1612068C1698D
:1015A0002A69114311E0206801F05EFA2068C169E0
:1015B00041F40061C1612068C16921F48061C161A9
:1015C0002068C1692A6941EA0221C161002084F8CA
:1015D0003C0070BD10B5040003D094F83D0010B17C
:1015E00007E0012010BD002084F83C00204600F0F8
:1015F0001EF8022084F83D00211D206801F05EF9EC
:10160000012084F8460084F83E0084F83F0084F806
:10161000400084F8410084F8420084F8430084F8D4
:10162000440084F8450084F83D00002010BD704758
:101630007047000010B50446022249B104290ED0BB
:10164000082913D094F84100012816D0012010BDBC
:1016500094F83E000128F9D184F83E200FE094F878
:101660003F000128F2D184F83F2008E094F84000C0
:101670000128EBD184F8402001E084F841200122C8
:10168000206801F051F90F492068884203D1426C6B
:1016900042F4004242642068884208D0B0F1804F92
:1016A00005D00949884202D00849884204D181689E
:1016B00001F00701062903D0016841F00101016032
:1016C000002010BD002C0140000400400008004034
:1016D00070B5044600681649884201D1FFF770F9D9
:1016E00025684FF0804000220123124985420CD129
:1016F0008D686D1C8D608D680E69B54205D30568D7
:1017000025F0010505600A700B7124680A488442BF
:101710000CD1CC68641CCC60CC684D69AC4205D35C
:10172000046824F0010404604A704B7170BD00002D
:10173000000800400000002000040040704770478F
:1017400070B5026804461068D168536910F00F0F35
:1017500052D003F0010501F490762E435FD0C2070A
:1017600005D0CA0503D5E26B42F00102E2634207ED
:1017700005D5DA0703D0E26B42F00202E26382078A
:1017800005D5DA0703D0E26B42F00402E2630207F8
:1017900007D501F020022A4303D0E26B42F0080291
:1017A000E263E26B002A33D0800604D5880602D5B6
:1017B000204601F0B4F920684069E16BC0F3801065
:1017C000090700D428B3204601F09BF9206841693D
:1017D00049061AD5416921F040014161606BA0B111
:1017E0002D494163606BFEF7D9FC002810D0606B77
:1017F000416BBDE870400847830610D58B060ED5B7
:101800002046BDE8704001F08AB92046FFF797FFF7
:1018100070BD2046FFF793FF0020E06370BD030614
:101820002BD50B0629D594F839002128F6D1A068CC
:10183000B0F5805F01D12069B0B1206A411C2162FE
:10184000216800784860E08C401E0004000CE084B1
:10185000E4D12068C16821F08001C1602068C168BE
:1018600041F04001C16070BD206A0088C0F30800EB
:101870005060206A801C2062E5E74006F3D54806E8
:10188000F1D5D168204621F04001D160202184F8B3
:10189000391000F088FA70BDF32A000830B585B021
:1018A000002400940194029403940068144988422F
:1018B00024D11448816941F480418161816901F436
:1018C00080410491816941F00401816180690E4D7C
:1018D00000F0040004904FF400700090022001908A
:1018E0000320039069462846FEF70AFD2815CDE936
:1018F0000004694628460294FEF702FD05B030BD9B
:1019000000380140001002400008014090F83A30D1
:10191000202B22D1F9B1F2B190F83830012B1CD034
:1019200081628285C2850021C163222280F83A202B
:1019300080F838100168CA6842F48072CA60016891
:101940004A6942F001024A610068C16841F0200121
:10195000C1600020704701207047022070470000DE
:101960002DE9F05F0822C649C648FFF7CFFFC449FA
:10197000C54800250A78C54FDFF814A30126A1F158
:101980001C04582A02D0592A13D1B7E04A784FF0E4
:101990008048532A05D08946302A0BD0312A0CD0F2
:1019A00010E0D8F8001021F00101C8F800102570EF
:1019B000267160E1A570002201E0A67001220221DB
:1019C000FEF793FD4FF4805B59465046FEF788FDC5
:1019D000012801D1A07840B159465046FEF780FD5C
:1019E00001283ED0A078A8B33BE099F80210A94A9C
:1019F0003039514399F8032040F271235A4301EBE7
:101A0000021199F80420484602EB4203C3EBC212CC
:101A100001EBC20199F8052002EBC20303EB0212AD
:101A200001EB8201827999F8070002EB820201EB57
:101A300042010844384420612670A560C8F824504B
:101A4000D8F8001041F00101C8F80010C82309229D
:101A500091A103E0FFE7C8230E2292A1894800F07C
:101A600049F94FF4005B59465046FEF739FDA1781D
:101A7000084234D099F80210864A3039514399F817
:101A8000032040F271235A4301EB021199F804201C
:101A9000484602EB4203C3EBC21201EBC20199F8C4
:101AA000052002EBC20303EB021201EB82018279F3
:101AB00099F8070002EB820201EB42010844384426
:101AC00020612670A560C8F82450D8F8001041F0B5
:101AD0000101C8F80010C82309226FA1C8E05946C7
:101AE0005046FEF7FDFC38B10020A178084218D01E
:101AF000C8230E226FA1BBE00120F6E74A78DFF889
:101B0000C481532A05D08946302A0BD0312A0CD003
:101B100010E0D8F8001021F00101C8F8001065703D
:101B20006671A8E0E570002201E0E6700122202144
:101B3000FEF7DBFC4FF48041D3465046FEF7D0FC65
:101B4000DFF880A101280AF1240A01D1E07848B128
:101B50004FF480415846FEF7C3FC01283ED0E078A0
:101B6000A8B33BE099F802104A4A3039514399F83A
:101B7000032040F271235A4301EB021199F804202B
:101B8000484602EB4203C3EBC21201EBC20199F8D3
:101B9000052002EBC20303EB021201EB8201827902
:101BA00099F8070002EB820201EB42010844384435
:101BB00060616670E560CAF80050D8F8001041F026
:101BC0000101C8F80010C82309223FA103E0FFE784
:101BD000C8230E223FA12B4800F08CF84FF400419F
:101BE0005846FEF77DFCE178084234D099F802109F
:101BF000284A3039514399F8032040F271235A435F
:101C000001EB021199F80420484602EB4203C3EBB2
:101C1000C21201EBC20199F8052002EBC20303EBEB
:101C2000021201EB8201827999F8070002EB82022D
:101C300001EB42010844384460616670E560CAF80F
:101C40000050D8F8001041F00101C8F80010C82376
:101C500009221DA10CE04FF400415846FEF740FC5C
:101C600060B10020E178084205D0C8230E221DA1F2
:101C7000044800F03FF8A671BDE8F09F0120F1E7AD
:101C80001C0000202401002000080140B0DCF7FF08
:101C9000000C0140A086010058574F524B494E4757
:101CA0000A000000585F6C696D697465645F4D4996
:101CB0004E0A0000585F6C696D697465645F4D4140
:101CC000580A00000004004059574F524B494E47F4
:101CD0000A000000595F6C696D697465645F4D4965
:101CE0004E0A0000595F6C696D697465645F4D410F
:101CF000580A00002DE9F843044690F839001F46C1
:101D000016460D4620284CD1C5B1BEB194F8380016
:101D1000012846D0012084F838004FF00008C4F8AC
:101D20003C80212084F83900FEF7E4FBA68481463C
:101D3000E684A068B0F5805F03D004E00120BDE830
:101D4000F883206928B12E465FF0000584F83880BA
:101D50000EE00026FAE78021204600F083FFA0B9BC
:101D6000AEB116F8010B21684860E08C401EE0849B
:101D7000E08C4B464FF0000200970028EBD14FF06B
:101D80004001204600F06EFF30B10320D7E735F860
:101D9000020BC0F30800E6E7202084F83900002099
:101DA000CDE70220CBE77047FEE700000148FEF7D1
:101DB000A9BB00003400002038B5406A002190F82B
:101DC0003D202B4B46F2A8141B68B3FBF4F3C3EB86
:101DD000C30303EB830300933BB15B1E00930368D3
:101DE0001B689B0505D5009BF6E7036C43F02003B9
:101DF0000364436B03B19962836B03B19962036817
:101E00001C6824F480641C604185436B03B15963F2
:101E1000836B03B1596303681C6824F001041C60E0
:101E200090F83D402023602C0BD0282434EA020295
:101E30000FD080F83D3080F83E1000BFFEF795FCD3
:101E400038BD80F83D3080F83E100164FEF758FB45
:101E500038BD0268136843F0010313600268136819
:101E600043F480631360016380F83D40E6E70000BF
:101E70003000002070B5044690F83D0094F83E1004
:101E8000102901D0402906D1222804D121680A68EE
:101E900022F400620A60282131EA00024FF00005B6
:101EA0004FF0200626D021684968090505D460282E
:101EB00003D084F83D6084F83E5025632068416873
:101EC000090537D5416821F400614160606B3D49E7
:101ED00090F82120012A11D04163606BFEF75EF972
:101EE00038B32068016821F00101016084F83D6089
:101EF000606B1CE0256384F83D10DFE7A06B416355
:101F0000A06BFEF74BF9A0B120684169C9434906AF
:101F100005D40069616A0870606A401C60622068CC
:101F2000016821F00101016084F83D60A06B416B04
:101F3000884710E094F83D10602910D04169C943EA
:101F4000490605D40069616A0870606A401C6062D5
:101F50002046FEF70AFC206CC1071CD115E084F86E
:101F60003D6025644169C943490605D40069616A39
:101F70000870606A401C60622068016821F00101FD
:101F800001602046FEF7BCFAE5E7810703D441076C
:101F900001D4000704D52068416821F4E061416064
:101FA00094F83D00216C49070BD5282809D1064833
:101FB000E062256384F83D6084F83E502046FEF7D9
:101FC00099FC70BDB91D00080000FFFF10B5C26A82
:101FD000438D0168042B06D0438D032B08D0438D1D
:101FE000022B1DD012E04A6822F480624A600CE0A5
:101FF0004B6823F480634B60042A06D0022A04D085
:1020000001680A6822F480620A6001680969426A0C
:102010001170416A491C4162418D491E418510BDC4
:10202000012A30D0102A2ED0042A30D0022A2ED0F5
:102030000A6842F400720A6001680969426A117014
:10204000416A491C4162428D521E428502681269F2
:102050000A70416A491C4162418D491E41850168EF
:102060004A6822F440724A60202180F83D1090F8BE
:102070003E200021402A80F83E100CD0122101633E
:10208000FEF739FC10BD0A6822F48062D3E70A68C3
:1020900042F48062CFE70163FEF72FFC10BD000021
:1020A00038B590F83D10222914D1418D032912D959
:1020B00001680969426A1170416A491C4162418D97
:1020C000491E4185418D032904D10068416821F4EE
:1020D0008061416038BDC26A022AFBD0012901D06B
:1020E0000029F7D1274946F2A81300220968B1FB5D
:1020F000F3F101EB8101009101682023009C641E33
:10210000009422D00C68A405F8D40C6824F48064F0
:102110000C6001684C6824F4E0644C600168096953
:10212000446A2170416A491C4162418D491E4185C2
:1021300080F83D3090F83E1080F83E2040291DD0B8
:1021400012210163FEF7D7FB38BD046C44F0200474
:1021500004644C6824F4E0644C6001680969446AD2
:102160002170416A491C4162418D491E418580F8B8
:102170003D3080F83E20FEF7F8FA38BD0263FEF7E6
:10218000BCFB38BD3000002010B5C16A90F83D207E
:10219000212A0BD1428D52B1416A0268097811613E
:1021A000416A491C4162418D491E418510BD002292
:1021B0002023082910D020290ED011F5803F0BD004
:1021C00001684C6824F4E0644C601121016380F8DC
:1021D0003E2080F83D300EE001684C6824F4E06455
:1021E0004C6001680C6844F400740C60026380F871
:1021F0003D3080F83E20FEF77FFB10BD10B590F813
:102200003D1090F83E30C26A048DB4B1212903D04C
:10221000402B11D122290FD1418DE1B390F83E100E
:10222000402942D0416A026809781161416A491C1B
:102230004162418D491E418510BD2129E8D12023ED
:102240000021082A13D0202A11D012F5803F0ED089
:102250000268546824F4E06454601122026380F838
:102260003E1080F83D3000BFFEF746FB10BD02680F
:10227000546824F4E06454600268146844F4007400
:102280001460016380F83D3090F83E2080F83E10E5
:10229000402AE9D100E002E0FEF730FB10BD006803
:1022A000416821F48061416010BDBDE8104000F03C
:1022B000F3B8000078B590F83E50C26A046B90F80D
:1022C0003D6000230168222E73D1066D0EB9402DAA
:1022D0006FD0056D1DB90569B5F5404F1BD0458D13
:1022E00095B3468D484D012E20D0448D022C4DD003
:1022F0000C6844F480640C6001684C68240579D54E
:10230000AA4273D0012A71D0082A6FD0102A6DD04A
:10231000202A6BD06EE04A698A6900920A6842F40A
:1023200080720A60016D491C016578BDAA4214D112
:102330000A6822F480620A6001684A68120504D5BE
:102340000A6822F4806217E0FFE74A698A6900920E
:102350000A6842F400720A6050E0082A10D0202A6D
:102360000ED0122C0AD0042A03D0022A01D0102A3F
:10237000E6D10A6842F480620A603BE0012ADFD0BD
:102380000A6822F480620A600168DEE7042A11D03C
:10239000022A0FD0102A0DD00C6844F400640C609F
:1023A00001684C698C6900940C6824F480640C60AA
:1023B00008E025E00C6844F480640C6001684C6916
:1023C0008969009101684C68240517D5AA4207D095
:1023D000012A05D0082A03D0102A01D0202A0DD1C5
:1023E0004A6842F480524A6008E0FFE74A6842F4D3
:1023F00080524A6001684A6989690091036578BD25
:1024000048698869009078BD0000FFFF90F83E1091
:10241000402910D00169B1F5804F19D0016DA9B3E1
:10242000016D012910D1416C5FF0F10201F440719E
:1024300042EAD11106E0016D0029416C05D0C9B214
:1024400041F0010100680161704701F0FE01F9E708
:1024500090F83D102129416C09D0C9B241F0010129
:1024600002681161416B29B1896A49B902E001F042
:10247000FE01F5E7816B0029E6D0896A0029E3D0E7
:102480000068416841F4006141607047FFE7416CBA
:10249000F02201F44071CBE710B590F83D10026DC9
:1024A00022B3026D012A2FD0026D022A1DD12229EA
:1024B00031D0428D0AB1212933D0428D002A14D166
:1024C000212912D101684A6822F4E0624A60016859
:1024D0000A6842F400720A6000210163202280F839
:1024E0003D2080F83E10FEF709FA10BDC16C0129AD
:1024F000816C02D0C1F3072108E00268C9B2116102
:10250000016D891C016510BD816CC9B20268116141
:10251000016D491CF6E70068016841F480710160B3
:1025200010BD416A026809781161416A491C416223
:10253000418D491E418510BDF8B590F83D600446B7
:102540000068416821F4E06141602068002541692C
:102550000091016841F0010101602068016821F4E7
:102560008061016020684168090520D5474F222E0F
:1025700048D02A2E46D0616B096849686185618D13
:1025800019B1216C41F004012164416821F400611A
:102590004160606BFDF74EFE012808D0606B476319
:1025A000606BFDF7FBFD10B1606B416B8847608D80
:1025B00008B320684169C943490708D40069616AC2
:1025C0000870606A401C6062608D401E60852068F3
:1025D0004169C943490608D40069616A0870606AA4
:1025E000401C6062608D401E6085608D18B1206C5B
:1025F00040F004002064206C00B32046BDE8F840A1
:10260000FFF738BCA16B096849686185618D19B114
:10261000216C41F004012164416821F400614160B2
:10262000A06BFDF707FE0128C1D0A06B4763A06B2C
:10263000FDF7B4FD0028BAD0A06BB6E72A2E06D16C
:102640002563282084F83D002046FEF787F994F89A
:102650003D10202028290DD0216B222901D0222EC7
:1026600007D1256384F83D0084F83E502046FEF7EC
:1026700075F9F8BD0649E162256384F83D0084F8E8
:102680003E502046FEF736F9F8BD0000B91D00089F
:102690000000FFFF70B586B0002425480094019427
:1026A00002940394816941F010018161816901F014
:1026B00010010491816941F020018161816901F07B
:1026C00020010491816941F004018161816901F077
:1026D00004010491816941F0080181618069154E0E
:1026E00000F008000490002222213046FDF7FDFE94
:1026F00022200125CDE900050220CDE902406946EE
:102700003046FDF7FDFD4FF4704000900A48CDE9DA
:10271000010569460948FDF7F3FD0022114628200E
:10272000FEF714FA2820FEF704FA06B070BD000088
:10273000001002400008014000002110000C014080
:1027400010B58EB000240794089409940A940B9451
:102750001C2168460C94FDF7EEFC17484FF08041B1
:1027600001604721C0E901146321C0E903148021FD
:102770008161FEF7EFFC4FF48050079007A90E48E7
:10278000FEF772FD0C48FEF725FF0B940BA90A48D3
:102790000C94FEF7ABFC6020CDE90004042004900B
:1027A0000022694602940448FEF7B1FE0248FEF793
:1027B0007BFE0EB010BD00009400002010B58EB05E
:1027C00000240794089409940A940B941C216846E9
:1027D0000C94FDF7B0FC1748154901604721C0E98A
:1027E00001146321C0E9031480218161FEF7B2FC6A
:1027F0004FF48050079007A90E48FEF735FD0D48AD
:10280000FEF7E8FE0B940BA90A480C94FEF76EFC49
:102810006020CDE900040294002269460548049432
:10282000FEF775FE0348FEF73FFE0EB010BD000038
:1028300000040040DC000020FEE77047704770474E
:10284000704730B58FB028216846FDF774FC14211D
:102850000AA8FDF770FC0920012100904FF4803098
:10286000002404910691CDE901040225CDE9075029
:102870004FF4E01009906846FEF7A6FA0F20CDE964
:102880000A056802CDE90C4002210AA80E94FEF761
:102890008FF90FB030BD70470148FEF751BD000001
:1028A000940000200148FEF74BBD0000DC00002032
:1028B0000148FEF745BD000064010020F0B5026844
:1028C000164B174C174D4FF08047984205D0B84231
:1028D00003D0A04201D0A84203D122F070064A687A
:1028E0003243984205D0B84203D0A04201D0A8425A
:1028F00003D122F44074CA6822434C6922F080025A
:10290000224302608A68C2620A688262984201D1E8
:102910000969016301214161F0BD0000002C014003
:10292000000400400008004010B501F01F03012121
:10293000046A99408C430462016A9A40114301621F
:1029400010BD10B5846842EA032224F47F440A4390
:102950002243826010BD826822F070020A4342F076
:10296000070181607047000030B5026A22F0010261
:102970000262026A4368846924F073050C682C4380
:1029800022F002058A682A430A4DA8420BD122F0A0
:102990000805CA6823F440732A434D6922F00402F3
:1029A0001D438B692B434360846149684163026224
:1029B00030BD0000002C014030B5026A22F0100248
:1029C0000262026A436884690D6824F4E64444EABA
:1029D00005248D6822F0200242EA05120B4DA84220
:1029E0000ED1CD6822F0800242EA05124D6923F42F
:1029F000406343EA85038D6922F0400243EA850380
:102A00004360846149688163026230BD002C0140EB
:102A100030B5026A22F480720262036A4268C469B5
:102A200023F4007324F073050C682C438D6843EA8B
:102A300005230C4DA8420ED1CD6823F4006343EA70
:102A400005234D6922F4405242EA05128D6923F4B0
:102A5000806342EA05124260C4614968C16303624F
:102A600030BD0000002C014030B5026A22F48052D3
:102A70000262046A4268C3690D6823F4E64343EACC
:102A800005238D6824F4005444EA0534064DA84219
:102A900004D14D6922F4804242EA85124260C3614A
:102AA00049680164046230BD002C014010B5036A1E
:102AB000046A24F001040462846924F0F00444EA06
:102AC000021423F00A020A438461026210BD10B5A9
:102AD000036A23F0100303628369046A23F47043DA
:102AE00043EA023224F0A00343EA01118261016249
:102AF00010BD10B5406A0021C185C184FEF71FFEDC
:102B000010BD0168CA6822F49072CA6001684A69FF
:102B100022F001024A61202180F83A10704710B576
:102B200090F83A10222901D0022010BD82684FF49B
:102B300080539A4201D1016921B1816A9A421BD026
:102B40004AB10AE00268816A5268C2F308020A8048
:102B5000816A891C08E0026972B10268526802F059
:102B60007F020A70816A491C8162C18D491E090475
:102B7000090CC18503D016E002685268F1E70168CC
:102B8000CA6822F02002CA600168CA6822F4807212
:102B9000CA6001684A6922F001024A61202180F876
:102BA0003A10FEF7DDFE002010BD000070B50446AF
:102BB00000680169E26821F4405111430161216913
:102BC000A0680843616908432168CA6841F20C6340
:102BD0009A430243CA6020684169A26921F44071A6
:102BE000114341611E492068884202D1FEF7A6F8D0
:102BF00001E0FEF793F800EBC00101EB0012606802
:102C000064218000B2FBF0F3B3FBF1F36FF0180620
:102C10007343B2FBF0F5B2FBF0F605EB830532230C
:102C200003EB0515B5FBF1F5B6FBF1F605F0F00584
:102C300005EB0615B2FBF0F6B2FBF0F0B0FBF1F0DD
:102C40006FF01802504306EB800003EB0010B0FB5E
:102C5000F1F0216800F00F002844886070BD00008A
:102C6000003801402DE9F041984617460E460446CB
:102C7000069D1DE0681C1BD02DB1FDF73BFCA0EBB1
:102C80000800A84214D92068C16821F4D071C1603D
:102C90002068416921F001014161202084F8390058
:102CA00084F83A00002084F838000320BDE8F08161
:102CB0002068006836EA000004D00020B842D9D06D
:102CC0000020F3E70120F9E70148FEF739BD0000D5
:102CD00024010020FEE70907090E002804DB00F1AB
:102CE000E02080F80014704700F00F0000F1E020B1
:102CF00080F8141D704702E008C8121F08C1002A9E
:102D0000FAD170477047002001E001C1121F002A6C
:102D1000FBD17047FDF75CFEFFF793FDFFF7BAFCB0
:102D20003B483A4901600621416096218160FDF7E8
:102D300017FEFFF705FDFFF741FD354835499C308B
:102D4000002401604FF41651C0E901140C21C46045
:102D5000C0E90441846122462146C461FDF7A2FE18
:102D60002B482D49543801602C49C0E90114A42195
:102D7000C1604FF48041C0E904144021C0E906411C
:102D80000462FDF7F3FC002211461F20FDF7DEFE72
:102D90001F20FDF7CEFE002211462520FDF7D6FEAE
:102DA0002520FDF7C6FE1A4800210C30FEF742FC34
:102DB000174800215430FEF73DFC15480C30FEF753
:102DC00027FA13485430FEF723FA322148074163AB
:102DD000134A1160016821F0010101601049343982
:102DE0000A6822F001020A6044620D48103804604B
:102DF000FDF780FB0B490822886105481C319C3097
:102E0000FEF784FD00F010F8FCE700000030004001
:102E1000880000200038014000540040A0860100D6
:102E2000340400400000002070B5114C00252079CA
:102E300030B1C82303220FA10F48FEF75BFF2571B5
:102E4000607930B1C82303220CA10B48FEF752FF72
:102E50006571FDF74FFBA169401AB0F5FA7F06D303
:102E600005489C38FDF7A5FDFDF744FBA06170BD4A
:102E70000000002046580A002401002046590A009C
:102E8000000000000000000001020304060708091A
:102E90000000000001020304B82E0008000000201A
:102EA00034000000F62C0008EC2E0008340000204E
:102EB0007C050000062D0008000000000000000056
:102EC0000000000000000000000000000000000002
:102ED00000000000000000000000000001000000F1
:0C2EE00010000000000000000024F400BE
:04000005080000ED02
:00000001FF
